:0F084E00303132333435363738392E2D4D0000E6
:1006D90011222050656368696E20536369656E63F2
:1006E900652000013A0002330000043600000000D2
:0806F900C100043B00000000F9
:1007D900759850538EBE53890F438920758DFD75C9
:0907E9008BFDD28ED2ACD2AF22FE
:10039100AF8CEFFEAD8A7C00E42DF534EC3EF533F5
:1003A100E4F58CF58AAC33AD341201D17B9A7A999C
:1003B10079D9783F120026E4FBFA79C87842120114
:1003C1002F12020A8F398E388D378C36E47FBC7E2E
:1003D10002FDFCAB39AA38A937A836C312038050F5
:1003E10003300030C200900859E493FB7D01E4FF23
:1003F100120787900858E493FB7D017F011207875C
:10040100900859E493FB7D017F02120787900859F8
:10041100E40204D6E47BE87A03F9F8AF39AE38ADEB
:1004210037AC361202E0AC00AD01AE02AF03E47BA3
:1004310064FAF9F81202E08F3BE47BE87A03F9F8F9
:10044100AF39AE38AD37AC361202E0AC00AD01AE1B
:1004510002AF03E47B64FAF9F81202E0AC00AD01EB
:10046100AE02AF03E47B0AFAF9F81202E08F3CE432
:100471007BE87A03F9F8AF39AE38AD37AC36120202
:10048100E0AC00AD01AE02AF03E47B0AFAF9F81269
:1004910002E0AC00AD01AE02AF03E47B0AFAF9F869
:1004A1001202E0AF038F3DE53B90084E93FB7D01C7
:1004B100E4FF120787900858E493FB7D017F011246
:1004C1000787E53C90084E93FB7D017F0212078769
:1004D100E53D90084E93FB7D017F0312078790084D
:0C04E1005AE493FB7D017F041207872280
:03000B00020003ED
:03000300D20032F6
:1007BF00D2B60000000000000000000000000000A2
:0A07CF0000000000000000C2B62286
:10080B00D284C285D286C287C280D281D282D28361
:07081B00752101E4F5412203
:10082200C284D285C286D287C281D280D282D2834A
:06083200E4F521F541226E
:10072A00D284C285C286C287E4F521C282D280D22F
:0F073A0081D283F5417FD07E0712076802080B3A
:10074900C284C285D286C287E4F521C283D280D20F
:0F07590081D282F5417FD07E0712076802080B1C
:10083800C284C285C286C287D281D280D282D28344
:06084800E4F521F5412258
:1007A4007DFAD3EF9400EE9400400FDDFE7DF9DD79
:0A07B400FE7DFAEF1F70EB1E80E8D7
:0107BE002218
:0A085D00EF1F70011E144E70F72209
:1004ED00758901E4F58CF58AD2A9D2AF1207D9121C
:1004FD0007F27B007A007922E4FDFF120702120752
:10050D00BF30B7FDD28C20B7FDC28C1203917F0A8C
:10051D007E001207A4E47F50FEFDFCAB39AA38A97A
:10052D0037A836D3120380503330843030862DE512
:10053D00216029D284C285C286C2877541017FE8B8
:10054D007E031207681207BF30B7FDD28C20B7FDAE
:10055D00C28C1203917F0A7E001207A4E47F32FE43
:10056D00FDFCAB39AA38A937A836D3120380408ECB
:10057D00E5416401708812080B7FD07E0712076871
:10058D00C284C285D286C2877FDC7E0512076812BF
:08059D00080BE4F54102050B17
:03002300020631A1
:10063100C0E0C0F0C083C082C0D075D000C000C08F
:1006410001C002C003C004C005C006C007C2AF306C
:10065100983DC298C284C285C286C287859935E514
:1006610035B4310512080B8026E535B43205120880
:1006710022801CE535B4330512072A8012E535B412
:1006810034051207498008E535B43003120838D221
:10069100AFD007D006D005D004D003D002D001D00E
:0C06A10000D0D0D082D083D0F0D0E03266
:10076800D3EF9400EE94004015E4FDFC0DBD0001AC
:0E0778000CED64364C70F5EF1F70E51E80E24C
:010786002250
:1006AD00C2C28FA07F647E001206BED2C47F647E5C
:0106BD00003C
:1006BE007DFAD3EF9400EE9400400FDDFE7DF9DD60
:0A06CE00FE7DFAEF1F70EB1E80E8BE
:0106D80022FF
:0A086700C2C4C2C11206ADC2C42211
:0A087100C2C4D2C11206ADC2C422F7
:1007F2007F381208677F0C1208677F061208677F2E
:09080200011208677F80020867FB
:10000E00ED7004AC078004EF2440FCEC4480FF024A
:02001E00086771
:10078700AE07AC0353050153060FED600343064064
:0D079700430680AF06120867AF0402087128
:100702008B088A09890A12000EAB08AA09A90A12E3
:10071200028B6013050AE50A7002050914F9120238
:080722008BFF12087180E22236
:10002600EC4D6011E8497017ED33EC3304600DE4D4
:10003600FCFFFEFD22E933E8330470F80202761273
:10004600024158046009E4CC248150062850090274
:10005600028028400302027DC0E0EB4A7044B9806A
:1000660006D0E0FB02026CEF4E701CBD8008EBFF71
:10007600EAFEE9FD80EBE98DF0A4FEE5F002010F52
:10008600E9CDF9EAFEEBFFEF89F0A4FCE5F0CE89B5
:10009600F0A42EFFE435F0CD89F0A42DFEE435F072
:1000A6008067EF4E7005BD80D780C3EF8BF0A4ACA0
:1000B600F0EE8BF0A42CFCE435F0F8EF8AF0A42CDB
:1000C600E5F038FCE433CB8DF0A42CFCE5F03BF8EE
:1000D600EE8AF0A42CFCE5F038F8E433CF89F0A4DE
:1000E6002CFCE5F038CF3400CE89F0A42FFFE5F0E4
:1000F6003EFEE433C98DF0A42EFEE5F039CD8AF03C
:10010600A42FFFE5F03EFEE43DFD33D0E0FB5007B3
:100116000BBB000F020280EC2CFCEF33FFEE33FE2C
:06012600ED33FD0202585A
:10012C00020280EC5D046005E8590470030202765B
:10013C00120241580460F6EC4860F2EC7004FDFECB
:10014C00FF22C860DB2481C85009C39860025006A6
:10015C0002027D9850CAF582E9294B4A7005AB82A0
:10016C0002026C75F0007C1A7880C3EF9BEE9AED5E
:10017C0099400DC3EF9BFFEE9AFEED99FDE842F01E
:10018C00DC23ACF0D0E0FFD0E0FED0E0FDAB822071
:10019C00E7101BEB60BAEC2CFCEF33FFEE33FEEDFB
:1001AC0033FD020258E803F830E705C0F075F000A3
:1001BC00EF2FFFEE33FEED33FD40B830E7C280AADF
:1001CC0075F020800E75F010800575F0087D007EAE
:1001DC00007F003392D530D503120372EC334010FC
:1001EC00EF33FFEE33FEED33FDEC33FCD5F0ED22B7
:0E01FC00E5F0247EA2D513CC92E7CDCEFF22F3
:10020A00EDD2E7CD33EC3392D524814006E4FFFEEC
:10021A00FDFC22FCE4CFCECDCC24E0501174FF804B
:10022A00EDC3CC13CCCD13CDCE13CECF13CF0470E8
:07023A00F030D5DE02037273
:10024100E9D2E7C933E833F892D5EDD2E7CD33EC03
:0702510033FC5002B2D5227C
:10025800EC30E7100FBF000C0EBE00080DBD000407
:100268000BEB6014A2D5EB13FCED92E7FD2274FFB3
:10027800FCFDFEFF22E480F8A2D574FF13FC7D800C
:03028800E480EF20
:030000000205A551
:0C05A500787FE4F6D8FD7581410205EC7A
:10028B00BB010689828A83E0225002E722BBFE0271
:09029B00E32289828A83E49322A4
:1002A40075F008758200EF2FFFEE33FECD33CDCC11
:1002B40033CCC58233C5829BED9AEC99E582984094
:1002C4000CF582EE9BFEED9AFDEC99FC0FD5F0D671
:1002D400E4CEFBE4CDFAE4CCF9A88222B800C1B99B
:1002E4000059BA002DEC8BF084CFCECDFCE5F0CBD9
:1002F400F97818EF2FFFEE33FEED33FDEC33FCEB12
:1003040033FB10D703994004EB99FB0FD8E5E4F9CC
:10031400FA227818EF2FFFEE33FEED33FDEC33FCB9
:10032400C933C910D7059BE99A4007EC9BFCE99AAD
:10033400F90FD8E0E4C9FAE4CCFB2275F010EF2FF2
:10034400FFEE33FEED33FDCC33CCC833C810D707F2
:100354009BEC9AE899400AED9BFDEC9AFCE899F82D
:0E0364000FD5F0DAE4CDFBE4CCFAE4C8F922C0
:0E037200C3E49FFFE49EFEE49DFDE49CFC229C
:10038000EB9FF5F0EA9E42F0E99D42F0E89C45F0D3
:01039000224A
:1005B1000204EDE493A3F8E493A34003F68001F26F
:1005C10008DFF48029E493A3F85407240CC8C3334B
:1005D100C4540F4420C8834004F456800146F6DF1A
:1005E100E4800B01020408102040809006D9E47ECB
:1005F100019360BCA3FF543F30E509541FFEE4930F
:10060100A360010ECF54C025E060A840B8E493A3D5
:10061100FAE493A3F8E493A3C8C582C8CAC583CA00
:10062100F0A3C8C582C8CAC583CADFE9DEE780BEB8
:0107010000F7
:00000001FF
